:100000000C942A000C943C000C943C000C943C0092
:100010000C943C000C943C000C943C000C943C0070
:100020000C943C000C943C000C9418010C943F017F
:100030000C9477000C943C000C943C000C943C0015
:100040000C943C000C943C000C943C000C943C0040
:100050000C943C0011241FBECFE5D8E0DEBFCDBF1D
:1000600020E0A0E6B0E001C01D92A037B207E1F7A2
:100070000E94D2010C94F6010C940000DC01FB01FB
:100080008181813079F411962C91119781E090E073
:10009000008002C0880F991F0A94E2F7822B119604
:1000A0008C93089511968C91119721E030E0008097
:1000B00002C0220F331F0A94E2F7209528231196DD
:1000C0002C9311978181823089F480B78E7F80BF15
:1000D00012962C91129781E090E0008002C0880F68
:1000E000991F0A94E2F7822B12968C9308951F921F
:1000F0000F920FB60F9211242F933F934F935F935C
:100100006F937F938F939F93AF93BF93EF93FF93DF
:10011000E0916000F09161000995FF91EF91BF912E
:10012000AF919F918F917F916F915F914F913F918F
:100130002F910F900FBE0F901F9018950F931F9344
:10014000CF93DF9300D0CDB7DEB7FC01892B09F444
:1001500050C08081883008F04EC08181882319F01A
:10016000823009F04AC08281882339F0803129F039
:10017000803219F0803309F042C08381823008F068
:1001800040C08481882311F08230E9F58F0185E039
:10019000A8E6B0E001900D928A95E1F713BEF80150
:1001A000208181819281822B892B83BF89B78C7FAB
:1001B00089BF99B723818481822B892B89BF828152
:1001C000882359F083E0898381E08A83BE016F5FD1
:1001D0007F4F86E390E00E943E00F80184818230E8
:1001E00019F08381813089F48FB780688FBF80E0F8
:1001F0000DC081E00BC081E009C081E007C081E053
:1002000005C081E003C081E001C080E00F900F9045
:10021000DF91CF911F910F9108958CBF80E00895D9
:1002200022B7FC01208380E0089582BF80E008951A
:100230001F920F920FB60F9211242F933F934F935B
:100240005F936F937F938F939F93AF93BF93EF933E
:10025000FF93E0916600F09167000995FF91EF919F
:10026000BF91AF919F918F917F916F915F914F91CE
:100270003F912F910F900FBE0F901F9018951F92D6
:100280000F920FB60F9211242F933F934F935F93CA
:100290006F937F938F939F93AF93BF93EF93FF934E
:1002A0008091620090916300A0916400B09165001C
:1002B0000196A11DB11D8093620090936300A093ED
:1002C0006400B0936500E0916D00F0916E000995B7
:1002D000FF91EF91BF91AF919F918F917F916F911E
:1002E0005F914F913F912F910F900FBE0F901F90F4
:1002F000189581B5886181BD81B5877F81BD0895DD
:1003000004B603FC02C081E0089580E008958830BF
:1003100018F010926F0002C080936F000E9480015D
:10032000811103C084B7877F84BF81B5887F81BD79
:1003300091B580916F008770892B81BD81B58860F0
:1003400081BD0895CF92DF92EF92FF92CF93DF931A
:100350001F92CDB7DEB7C12CD12C760114C080E03E
:100360000E941501CE0101960E94100104C0CE0129
:1003700001960E94100189818B3FC8F38FEFC81A44
:10038000D80AE80AF80A80EDC81687E0D806E10422
:10039000F10428F30F90DF91CF91FF90EF90DF9061
:1003A000CF900895CF93DF9300D000D01F92CDB7A8
:1003B000DEB78FEF8ABB82E089831A821B821C82A0
:1003C0001D828AEF0E940D01CE0101960E949E00BF
:1003D00087E00E94870110E004C01BBB0E94A201BD
:1003E0001F5F1A30D0F30E947901FFCFF894FFCF3E
:00000001FF
