:100000000C942A000C9447000C9447000C94470071
:100010000C9447000C9447000C9447000C94470044
:100020000C9447000C9447000C941F010C9446015B
:100030000C9482000C9447000C9447000C944700E9
:100040000C9447000C9447000C9447000C94470014
:100050000C94470011241FBECFE5D8E0DEBFCDBF12
:1000600010E0A0E6B0E0E8E3F3E002C005900D92F6
:10007000A636B107D9F720E0A6E6B0E001C01D9290
:10008000A537B207E1F70E9480010C949A010C9405
:100090000000DC01FB018181813079F411962C9103
:1000A000119781E090E0008002C0880F991F0A94A8
:1000B000E2F7822B11968C93089511968C911197EB
:1000C00021E030E0008002C0220F331F0A94E2F7E3
:1000D0002095282311962C9311978181823089F4E1
:1000E00080B78E7F80BF12962C91129781E090E0AE
:1000F000008002C0880F991F0A94E2F7822B1296A3
:100100008C9308951F920F920FB60F9211242F9384
:100110003F934F935F936F937F938F939F93AF938F
:10012000BF93EF93FF93E0916600F091670009950C
:10013000FF91EF91BF91AF919F918F917F916F91BF
:100140005F914F913F912F910F900FBE0F901F9095
:1001500018950F931F93CF93DF9300D0CDB7DEB7E1
:10016000FC01892B09F454C08081883008F052C00A
:100170008181882339F0883029F0803419F088345F
:1001800009F04AC08281882339F0803129F0803219
:1001900019F0803309F042C08381823008F040C0FA
:1001A0008481882311F08230E9F58F0185E0AEE685
:1001B000B0E001900D928A95E1F713BEF80120811D
:1001C00081819281822B892B83BF89B78C7F89BFE4
:1001D00099B723818481822B892B89BF82818823CF
:1001E00059F083E0898381E08A83BE016F5F7F4F8E
:1001F00086E390E00E944900F8018481823019F082
:100200008381813089F48FB780688FBF80E00DC013
:1002100081E00BC081E009C081E007C081E005C03A
:1002200081E003C081E001C080E00F900F90DF917A
:10023000CF911F910F9108958CBF80E008951F9278
:100240000F920FB60F9211242F933F934F935F930A
:100250006F937F938F939F93AF93BF93EF93FF938E
:10026000E0916C00F0916D000995FF91EF91BF91C5
:10027000AF919F918F917F916F915F914F913F913E
:100280002F910F900FBE0F901F9018951F920F92F5
:100290000FB60F9211242F933F934F935F936F9359
:1002A0007F938F939F93AF93BF93EF93FF9380912F
:1002B000680090916900A0916A00B0916B0001966E
:1002C000A11DB11D8093680090936900A0936A00FE
:1002D000B0936B00E0917300F09174000995FF9169
:1002E000EF91BF91AF919F918F917F916F915F91AE
:1002F0004F913F912F910F900FBE0F901F90189527
:10030000CF93DF9300D000D01F92CDB7DEB78FEF31
:100310008ABB85E0E0E6F0E0DE01119601900D92E7
:100320008A95E1F780E80E941C01CE0101960E94A7
:08033000A900FFCFF894FFCFF4
:060338000140100000006E
:00000001FF
