:100000000C942A000C9447000C9447000C94470071
:100010000C9447000C9447000C9447000C94470044
:100020000C9447000C9447000C942C010C94530141
:100030000C948E000C9447000C9447000C944700DD
:100040000C9447000C9447000C9447000C94470014
:100050000C94470011241FBECFE5D8E0DEBFCDBF12
:1000600010E0A0E6B0E0E8EDF3E002C005900D92EC
:10007000A636B107D9F720E0A6E6B0E001C01D9290
:10008000A937B207E1F70E94BE010C94EA010C9473
:100090000000DC01FB018181813079F411962C9103
:1000A000119781E090E0008002C0880F991F0A94A8
:1000B000E2F7822B11968C93089511968C911197EB
:1000C00021E030E0008002C0220F331F0A94E2F7E3
:1000D0002095282311962C9311978181823089F4E1
:1000E00080B78E7F80BF12962C91129781E090E0AE
:1000F000008002C0880F991F0A94E2F7822B1296A3
:100100008C930895FC01428121E030E002C0220F6F
:10011000331F6A95E2F72427228308951F920F92D6
:100120000FB60F9211242F933F934F935F936F93CA
:100130007F938F939F93AF93BF93EF93FF93E09140
:100140006600F09167000995FF91EF91BF91AF9123
:100150009F918F917F916F915F914F913F912F91DF
:100160000F900FBE0F901F9018950F931F93CF9372
:10017000DF9300D0CDB7DEB7FC01892B09F450C066
:100180008081883008F04EC08181882319F0823048
:1001900009F04AC08281882339F0803129F0803209
:1001A00019F0803309F042C08381823008F040C0EA
:1001B0008481882311F08230E9F58F0185E0A2E780
:1001C000B0E001900D928A95E1F713BEF80120810D
:1001D00081819281822B892B83BF89B78C7F89BFD4
:1001E00099B723818481822B892B89BF82818823BF
:1001F00059F083E0898381E08A83BE016F5F7F4F7E
:1002000086E390E00E944900F8018481823019F071
:100210008381813089F48FB780688FBF80E00DC003
:1002200081E00BC081E009C081E007C081E005C02A
:1002300081E003C081E001C080E00F900F90DF916A
:10024000CF911F910F9108958CBF80E008959093F6
:1002500071008093700008951F920F920FB60F9255
:1002600011242F933F934F935F936F937F938F93BB
:100270009F93AF93BF93EF93FF93E0917000F09142
:1002800071000995FF91EF91BF91AF919F918F916F
:100290007F916F915F914F913F912F910F900FBE82
:1002A0000F901F9018951F920F920FB60F92112466
:1002B0002F933F934F935F936F937F938F939F936E
:1002C000AF93BF93EF93FF93809168009091690083
:1002D000A0916A00B0916B000196A11DB11D8093A1
:1002E000680090936900A0936A00B0936B00E0915E
:1002F0007700F09178000995FF91EF91BF91AF9150
:100300009F918F917F916F915F914F913F912F912D
:100310000F900FBE0F901F90189580916C009091D8
:100320006D00A0916E00B0916F00803A9F40A105D2
:10033000B10581F463E086E390E00E9482008BB314
:100340008F5F8BBB10926C0010926D0010926E004C
:1003500010926F0080916C0090916D00A0916E00E2
:10036000B0916F000196A11DB11D80936C00909318
:100370006D00A0936E00B0936F000895CF93DF934C
:10038000CDB7DEB727970FB6F894DEBF0FBECDBF4F
:100390008FEF8ABB83E0898381E08A83BE016F5F30
:1003A0007F4F86E390E00E9449008DE891E00E9433
:1003B000270185E0E0E6F0E0DE01139601900D9262
:1003C0008A95E1F78AEF0E942401CE0103960E94EC
:0803D000B500FFCFF894FFCF48
:0603D80002020000020019
:00000001FF
