:100000000C942A000C9447000C9447000C94470071
:100010000C9460030C9487030C9447000C944700E5
:100020000C9447000C9447000C94FF020C94260398
:100030000C94D8020C94C1030C94E8030C940F04A4
:100040000C9443020C9447000C9447000C94470016
:100050000C94470011241FBECFE5D8E0DEBFCDBF12
:1000600010E0A0E6B0E0EAEBF8E002C005900D92E7
:10007000AA37B107D9F720E0AAE7B0E001C01D9286
:10008000A839B207E1F70E9436040C945B040C9483
:100090000000CF93DF9300D0CDB7DEB719820BC03D
:1000A0001A8203C09A819F5F9A839A819436D0F313
:1000B00099819F5F99839981981790F30F900F9082
:1000C000DF91CF91089541E061E089E390E00E94E3
:1000D000BE0282E30E94490040E061E089E390E0D3
:1000E0000E94BE020895CF93C82F40E060E089E3EC
:1000F00090E00E94BE0240E061E089E390E00E944F
:10010000BE024C2F407150E0559547955595479547
:10011000559547955595479562E089E390E00E9493
:10012000BE024C2F407250E0559547955595479526
:1001300055954795559547955595479563E089E3BE
:1001400090E00E94BE024C2F407450E0042E452FD8
:10015000000C441F550B000C441F551F64E089E33D
:1001600090E00E94BE024C2F441F4427441F65E0CC
:1001700089E390E00E94BE020E9463004C2F417010
:1001800062E089E390E00E94BE024C2F427050E092
:100190005595479563E089E390E00E94BE024C2F9D
:1001A000447050E0559547955595479564E089E32F
:1001B00090E00E94BE02C8704C2F50E055954795C4
:1001C000559547955595479565E089E390E00E94E0
:1001D000BE020E946300CF9108951F93CF93DF93D7
:1001E00084E10E944900C6E9D0E0188211E0198339
:1001F000BE0189E390E00E946C0218831983BE015E
:1002000089E390E00E946C0240E061E089E390E0C5
:100210000E94BE0240E060E089E390E00E94BE02DE
:100220008FE00E94490082E088831983BE0189E340
:1002300090E00E946C0283E088831983BE0189E309
:1002400090E00E946C0284E088831983BE0189E3F8
:1002500090E00E946C0285E088831983BE0189E3E7
:1002600090E00E946C0285E00E94490082E00E94BA
:10027000730088E20E94730086E00E94730080E8A9
:100280000E9473008FE00E947300DF91CF911F9155
:100290000895CF93DF93603118F5843008F5D62F99
:1002A000C82F813059F028F0823069F0833081F016
:1002B00013C080E8860F0E9473000EC080EC860F8A
:1002C0000E94730009C080E9860F0E94730004C079
:1002D00080ED860F0E947300C0937A00D0937B005C
:1002E000DF91CF91089581E00E94730010927B000E
:1002F00010927A00089590917B00903168F080917F
:100300007A00833048F410927B008F5F80937A00EC
:1003100060E00E9449010895903168F080917A0070
:10032000833049F40E94730180E80E9473001092A8
:100330007B0010927A000895CF93C82F0E947B0112
:1003400041E060E089E390E00E94BE0240E061E0AD
:1003500089E390E00E94BE024C2F407150E0559519
:10036000479555954795559547955595479562E01D
:1003700089E390E00E94BE024C2F407250E05595F8
:100380004795559547955595479555954795559555
:10039000479563E089E390E00E94BE024C2F4074D1
:1003A00050E0042E452F000C441F550B000C441F39
:1003B000551F64E089E390E00E94BE024C2F441F69
:1003C0004427441F65E089E390E00E94BE020E943A
:1003D00063004C2F417062E089E390E00E94BE020E
:1003E0004C2F427050E05595479563E089E390E0CB
:1003F0000E94BE024C2F447050E05595479555958C
:10040000479564E089E390E00E94BE02C8704C2FDB
:1004100050E055954795559547955595479565E015
:1004200089E390E00E94BE020E94630080917B00FD
:100430008F5F80937B00CF910895CF93DF93EC0182
:1004400003C021960E949C0188818111FACFDF911F
:10045000CF910895CF93DF9300D0CDB7DEB71A8246
:100460006983BE016F5F7F4F0E946C020F900F90F7
:10047000DF91CF9108950E94A50291E0813009F4A7
:1004800090E0892F08951F920F920FB60F921124BA
:100490002F933F934F935F936F937F938F939F938C
:1004A000AF93BF93EF93FF93E0917C00F0917D00B9
:1004B000309709F00995FF91EF91BF91AF919F910E
:1004C0008F917F916F915F914F913F912F910F90FD
:1004D0000FBE0F901F901895DC01FB0181818130C8
:1004E00079F411962C91119781E090E0008002C080
:1004F000880F991F0A94E2F7822B11968C93089526
:1005000011968C91119721E030E0008002C0220FFB
:10051000331F0A94E2F72095282311962C93119704
:100520008181823089F480B78E7F80BF12962C91B2
:10053000129781E090E0008002C0880F991F0A9412
:10054000E2F7822B12968C930895FC01408121E002
:1005500030E0C901062E02C0880F991F0A94E2F705
:10056000242F30E02823392302C0359527956A953A
:10057000E2F781E0232B09F480E00895FC0141308B
:1005800059F4228181E090E002C0880F991F6A959A
:10059000E2F7822B82830895928121E030E002C04D
:1005A000220F331F6A95E2F72095292322830895AD
:1005B0001F920F920FB60F9211242F933F934F93D8
:1005C0005F936F937F938F939F93AF93BF93EF93BB
:1005D000FF93E0917E00F0917F000995FF91EF91EC
:1005E000BF91AF919F918F917F916F915F914F914B
:1005F0003F912F910F900FBE0F901F9018951F9253
:100600000F920FB60F9211242F933F934F935F9346
:100610006F937F938F939F93AF93BF93EF93FF93CA
:10062000E0918000F09181000995FF91EF91BF91D9
:10063000AF919F918F917F916F915F914F913F917A
:100640002F910F900FBE0F901F9018951F920F9231
:100650000FB60F9211242F933F934F935F936F9395
:100660007F938F939F93AF93BF93EF93FF9380916B
:10067000840090918500A0918600B091870001963A
:10068000A11DB11D8093840090938500A0938600E6
:10069000B0938700E0918200F09183000995FF916B
:1006A000EF91BF91AF919F918F917F916F915F91EA
:1006B0004F913F912F910F900FBE0F901F90189563
:1006C0001F920F920FB60F9211242F933F934F93C7
:1006D0005F936F937F938F939F93AF93BF93EF93AA
:1006E000FF93E0918800F09189000995FF91EF91C7
:1006F000BF91AF919F918F917F916F915F914F913A
:100700003F912F910F900FBE0F901F9018951F9241
:100710000F920FB60F9211242F933F934F935F9335
:100720006F937F938F939F93AF93BF93EF93FF93B9
:1007300080918C0090918D00A0918E00B0918F00DF
:100740000196A11DB11D80938C0090938D00A09304
:100750008E00B0938F00E0918A00F0918B00099594
:10076000FF91EF91BF91AF919F918F917F916F9189
:100770005F914F913F912F910F900FBE0F901F905F
:1007800018951F920F920FB60F9211242F933F933B
:100790004F935F936F937F938F939F93AF93BF9389
:1007A000EF93FF93E0919400F09195000995FF91EC
:1007B000EF91BF91AF919F918F917F916F915F91D9
:1007C0004F913F912F910F900FBE0F901F90189552
:1007D0001F920F920FB60F9211242F933F934F93B6
:1007E0005F936F937F938F939F93AF93BF93EF9399
:1007F000FF93E0919000F09191000995FF91EF91A6
:10080000BF91AF919F918F917F916F915F914F9128
:100810003F912F910F900FBE0F901F9018951F9230
:100820000F920FB60F9211242F933F934F935F9324
:100830006F937F938F939F93AF93BF93EF93FF93A8
:10084000E0919200F09193000995FF91EF91BF9193
:10085000AF919F918F917F916F915F914F913F9158
:100860002F910F900FBE0F901F90189562E086E3B6
:1008700090E00E942A020E94ED0062E086E390E090
:100880000E943B02D82F01C0DC2F62E086E390E09B
:100890000E943B02C82FD817B9F30E947301C111FF
:1008A00005C080E690E00E941D02EECF80E790E058
:0A08B0000E941D02E9CFF894FFCF6B
:1008BA004D6F74696F6E2044657465637465640076
:0A08CA004E6F204D6F74696F6E00D1
:00000001FF
